:020000040000FA
:0600000065EF0DF0120097
:020006001200E6
:0600080016EF00F01200EB
:02000E00C2909E
:040010009D9C1200A1
:020014001200D8
:0600180078EF01F0120078
:02001E000100DF
:0C002000151B000000010000E9000000BA
:04002C00DACFE4FF44
:10003000E9CFE4FFEACFE4FFF3CFE4FFF4CFE4FF3E
:10004000E6520101212B000E222323232423F2A0B8
:1000500003D0F29081CFCCF2A350100B0DE0A4504E
:10006000100B0AE08B84BAA207D0A3988B940D2BB7
:10007000000E0E230F231023F2A41ED0F29485EC61
:1000800004F00101292B000E2A232B232C23D880D6
:10009000050E2955000E2A55000E2B55000E2C5525
:1000A00003E22D5101E0009900014A5105E04A07A1
:1000B00003E1499149934B6B9EAC1ED09E9C01017C
:1000C000052B000E06230723082365EC04F0C3CF9D
:1000D000EEFFC4CFEDFF0201C75106E0010165EC60
:1000E00004F08DEC04F005D0010165EC04F0EF5054
:1000F000C96E010100838B949EA6F3D09E96C9CF52
:1001000046F28B848B80A4AA05D07ACFCBF2010172
:10011000E88D0087F00E02014615C86F0001498185
:10012000030E4A6F49A317D04B51010A07E0010A99
:100130000BE146C2CFF2D2C2C9FF0BD046C2D0F209
:10014000CFC202F0D0C203F00201466B0001499316
:100150008A944B2B8B94F00E0201465D15E1000151
:100160004951020B11E18A8401012F5103E1010E73
:100170002F6F2E6F000149834B6B00C0D1F201C07D
:10018000D2F2D1C2C9FF8B94000149B3AAD0A00E0C
:100190000201C85D13E18150C96E0F0E4615C96F8B
:1001A0000101112B000E12231323142321C125F169
:1001B00022C126F123C127F124C128F1D00E02016A
:1001C000C85D11E1030E4615100DF350C911836E81
:1001D0000C0E4615100DF350806E0101008995DB61
:1001E000F294E8C1C9FFB00EC85D0CE10F0E4615D0
:1001F000CA6F8B80CBC2C9FF0101192B000E1A23D5
:100200001B231C23E00E0201C85D12E1BAA207D035
:100210000F0E4615100DF350CA11796EA388E8C170
:10022000C9FF01013A0EE86F009700896EDBF29476
:10023000800EC85D03E0900EC85D28E146AD03D096
:10024000010EC76F01D0C76B0F0E46150101E76F96
:10025000040EE75D01E1E76BE751090801E2E76B96
:10026000C2B210D0030EC2140101F06F0101E751B8
:10027000040DF3507C0B0101F011C26E01010093DB
:10028000C28204D0C292E8C1C9FF0093C00E02012D
:10029000C85D11E1C2B20DD0C75105E0010115DB07
:1002A000EF50C96E03D0010110DB37DB2EDBF29477
:1002B00002D0E8C1C9FFC85109E1E8C1C9FF010185
:1002C000296B2A6B2B6B2C6B010E2D6F100E02010C
:1002D000C85D05E1CBC2C9FF01013A0EE86FC2A2B9
:1002E0008B94E552E5CFF4FFE5CFF3FF2EDB110051
:1002F000D8CFE4FFE0CFE4FFE46EDACFE4FFE2CF53
:10030000DAFFE9CFE4FFEACFE4FFD9CFE4FFDACFA9
:10031000E4FF5BC0E4FF5CC0E4FF5DC0E4FF5EC0DF
:10032000E4FFF6CFE4FFF7CFE4FFF8CFE4FFF5CF2B
:10033000E4FFF3CFE4FFF4CFE4FFFACFE4FFFBCF19
:10034000E4FFE6529EA077D00001042B000E0523A7
:10035000062307239E900EDB00018350010B02E071
:10036000008101D000918350020B02E0008301D094
:1003700000938350040B02E0008501D00095835068
:10038000080B02E0008701D000978350100B02E0B9
:10039000008901D000998350200B02E0008B01D02E
:1003A000009B8350400B02E0008D01D0009D8350E4
:1003B000800B02E0008F01D0009F8450010B02E00F
:1003C000018101D001918450020B02E0018301D030
:1003D00001938450040B02E0018501D0019549B3DB
:1003E00006D000C0D3F201C0D4F2D3C2C9FF02517B
:1003F000010B02E0898001D089900251020B02E0DA
:10040000898201D089920251040B02E0898401D0D3
:1004100089940251080B02E0898601D08996025125
:10042000100B02E08A8001D08A900251800B02E01A
:100430008A8601D08A96E552E5CFFBFFE5CFFAFF29
:10044000E5CFF4FFE5CFF3FFE5CFF5FFE5CFF8FF0C
:10045000E5CFF7FFE5CFF6FFE5CF5EF0E5CF5DF046
:10046000E5CF5CF0E5CF5BF0E5CFDAFFE5CFD9FF74
:100470006CDAE550E5CFE0FFE5CFD8FF1000D9CF2B
:10048000E6FFE1CFD9FF86E90201D56BD66BD76BCA
:10049000D86B0201D551015CD6510258D75103588F
:1004A000D85104580BE30000005001E004000201A1
:1004B000D52B000ED623D723D823EBD741E9E7CF9E
:1004C000D9FF12000101010E2F6FD0A6636F7F507C
:1004D000080B05E07F50800B02E1010E646F4F0EA8
:1004E000A616BA9ACF0EA31607EC00F0700ED36EC4
:1004F000400E9B6E906A0F015D6B5C6B926A936A13
:10050000946A9568568F9668568D89688A688B6854
:10051000928A94969488949A10DAE2D900014991CB
:1005200049934B6BF18EF2960F015A6BD08EF28E7F
:10053000F28CC69CC69E12000FDA01012F6BD0B65A
:1005400002D0010E636F7F50080B05E07F50800BD7
:1005500002E1010E646F000E016F020E026F230EA6
:10056000036F020E046F01C1E6FF02C1E6FFE7EC74
:1005700008F042E903C1E6FF04C1E6FFE7EC08F03A
:1005800042E9700ED36E400E9B6E906A3F0E926EE3
:10059000C00E896E3B0E936EF19EF296F298F29227
:1005A000F2900F015A6B980E946E810E956E8C68C6
:1005B000070E966E94869488949A928A9494928068
:1005C000928292849286928A968096829684938270
:1005D0009388949C948E959C958EF70EE66E830E70
:1005E000E66EE30EE66E6BEC0CF043E90F01EF0EE6
:1005F0005D6F030E5C6FE00EC16E9D8C9F8C9DD96C
:100600003A0EC96E330EE66EE66AAC0EE66E67EC25
:100610000BF043E97C6A190E7B6EA39861D99D8625
:10062000D08EA1D9F28EF29CC69CC69E42E9E7CF3D
:10063000D9FF120001012E5108E0F29EF29C2E6BB0
:100640002F5102E19CEF02F03DDF120085D901013C
:10065000296B2A6B2B6B2C6B2D6B0089010E2E6F77
:100660002F6BE8DF010EE66EF40EE66E010EE66E0D
:10067000E66AE66A04DF45E9520EE66E150EE66E9E
:10068000000EE66E3DEC0CF043E92A0EE66E150E08
:10069000E66E000EE66E3DEC0CF043E93F0E8C6E0C
:1006A000C00E896E8B808B80C5DFC650800B03E146
:1006B000C650400B44E0C69CC69E090EE96E010E72
:1006C000EA6EEE500101055D096FEE5006590A6FA2
:1006D000EE5007590B6FEE5008590C6F150EE96E6E
:1006E000010EEA6EEE50115D156FEE501259166F45
:1006F000EE501359176FEE501459186F40C1E6FFB2
:1007000041C1E6FF42C1E6FF43C1E6FF34C1E6FF57
:1007100035C1E6FF36C1E6FF37C1E6FF070EE66EDC
:10072000150EE66E000EE66E03D9A0EC0BF04DE957
:1007300001012F5104E1FCD8BEEC0CF042E9A650B7
:10074000020B03E1A650040B19E0A6A402D08B70A3
:1007500001D08B90A698A6881D0EE96E010EEA6E58
:10076000EE500101195D1D6FEE501A591E6FEE50CB
:100770001B591F6FEE501C59206FF5D8F29E05C112
:1007800030F106C131F107C132F108C133F109C1BD
:1007900034F10AC135F10BC136F10CC137F10DC18D
:1007A00038F10EC139F10FC13AF110C13BF111C15D
:1007B0003CF112C13DF113C13EF114C13FF115C12D
:1007C00040F116C141F117C142F118C143F119C1FD
:1007D00044F11AC145F11BC146F11CC147F11DC1CD
:1007E00048F11EC149F11FC14AF120C14BF121C19D
:1007F0004CF122C14DF123C14EF124C14FF125C16D
:1008000050F126C151F127C152F128C153F129C13C
:1008100054F12AC155F12BC156F12CC157F12DC10C
:1008200058F12EC159F12FC15AF1F28E0101010E7A
:10083000E66EC00EE66E270EE66E090EE66EE66AFE
:100840001EDE45E938C1E6FF39C1E6FF3AC1E6FFE1
:100850003BC1E6FF54C1E6FF55C1E6FF56C1E6FFC6
:1008600057C1E6FF44C1E6FF45C1E6FF46C1E6FFCA
:1008700047C1E6FF3CC1E6FF3DC1E6FF3EC1E6FFE2
:100880003FC1E6FF30C1E6FF31C1E6FF32C1E6FFFE
:1008900033C1E6FF4CC1E6FF4DC1E6FF4EC1E6FFA6
:1008A0004FC1E6FFC40EE66E140EE66E000EE66E55
:1008B0003FD8A0EC0BF05DE901012F5101E0F4D627
:1008C00037D8BEEC0CF042E9EFD6E751E96EEA6AA0
:1008D000D890E936EA36650EE926010EEA221200C2
:1008E000970EE66EE1EC0CF041E9E66A7D0EE66EED
:1008F00014EC0DF042E9E66A9B0EE66E97EC0CF004
:1009000042E99F9037D89E9612000201CD6B7D0E72
:10091000CE6FD76ECDC2D6FF1200EECFF0F1EFCF83
:10092000F1F10101F1C1F0F1F16BF0C1C9FF120069
:10093000470EE66E020EE66E1200E66AE66A040EE6
:10094000E66E0CEC0CF043E91200E5CFEAFFE5CFD0
:10095000E9FFE5CFDAFF1200D9CFE6FFE1CFD9FFFB
:1009600081E941E812007A50016E7A50016E7A50A6
:10097000016E1200600EE66E6D0EE66EFCEC0CF081
:0409800042E9120036
:0C09840090DB86E90150010600090CE040
:1009900002EBE6FF03EBE6FF00EBE6FF69DBF4E1C9
:1009A000EA1DF2E1010E01D0000E41E9E5CFDAFFC8
:1009B000E7CFD9FF120077DB89E97BE80A6A0B6A87
:1009C00002EBF6FF03EBF7FF04EBF8FF0800F5502E
:1009D000096E095001E12DD3250E095C01E01BD3FE
:1009E0000C6A0D6A0E6A0F6A106A2DDB2D0E095C07
:1009F0000CE02B0E095C09E0200E095C06E0230EDA
:100A0000095C03E0300E095C15E10950300A10E082
:100A1000130A0CE0030A08E00B0A04E0060AE5E109
:100A20000C80E3D70C82E1D70C84DFD70C86DDD7AE
:100A30000C88DBD72A0E095C13E1A5DB0DE30C80E3
:100A40001CEBE9F11DEBEAF10101E96DEA1F000E73
:100A5000EA23E9510D6E02D09CEB0DF0F4DA07D0D9
:100A6000126A3FDB02E06BDBFCD792EB0DF00CB0BF
:100A70000C982E0E095C15E1E6DA2A0E095C08E1F5
:100A800082DB04E29CEB0EF0010E0F6EDCDA09D083
:100A9000126A27DB02E053DBFCD792EB0EF0010E6B
:100AA0000F6E680E095C07E1CEDA680E095C1DE185
:100AB000030E106E19D0740E095C16E07A0E095CF4
:100AC00013E0480E095C06E0540E095C03E05A0E80
:100AD000095C02E1020E07D06C0E095C03E06A0EAD
:100AE000095C03E1010E106EAEDA09506E0A01E1F5
:100AF0006ED21E0A01E128D1200A01E125D13F0A68
:100B000001E1FDD01A0A01E1FAD00D0A01E1F7D0A6
:100B1000200A01E1F4D03A0A01E1F1D0200A01E112
:100B2000EED0260A01E1EAD00D0A01E1E7D01A0A67
:100B300001E19ED0200A3BE0300A1AE0460A0EE0AE
:100B4000250A01E072D2D950020FE96E000EDA20B8
:100B5000EA6E010EEE5E000EEE5AEE5A0FDB250E27
:100B6000E66E86DA03E1EA1D01E159D20A2A5BD278
:100B7000116A0D50010803E20D04116EF5DA1150EF
:100B800007E0010E0C1404E16DDA01E048D2116AAD
:100B9000D3DAEF50096ECBDA03E1EA1D01E13FD26F
:100BA0000A2A000E0B225EDA01E13FD238D2020E91
:100BB000105C08E1030E4EDAEE50176EEE50186E20
:100BC000EF5007D0E7DAEB6BE951176EEA51186E78
:100BD000EB51196E17EBE6FF18EBE6FF19EBE6FF9A
:100BE00042EC0BF043E95BC0E9F15CC0EAF15DC0A7
:100BF000EBF10101E9511C6EEA511D6E0F5006E048
:100C00001C500E5C03E20E501C6E1D6A1C500D5CE5
:100C100002E29CEB0DF050DA05E00D500E5C02E2B2
:100C20008EEB0DF00CB004D01DDA01E0F8D1116AA2
:100C3000126A17EBF6FF18EBF7FF19EBF8FF080045
:100C4000F550096E095010E00D50125C0DE26FDA9C
:100C500003E1EA1D01E1E3D10A2A000E0B22122A68
:100C6000D950170F55DAEBD7FDD901E1DED1D7D135
:100C700063DAEE501A6EED501B6E1AEBE6FF1BEBBB
:100C8000E6FF34EC0BF042E9F3501C6EF4501D6E9D
:100C90000F5006E01C500E5C03E20E501C6E1D6AE5
:100CA0001C500D5C02E29CEB0DF006DA05E00D50E5
:100CB0000E5C02E28EEB0DF00CB004D0D3D901E053
:100CC000AED1116A126A1AEBE9FF1BEBEAFFEF5093
:100CD000096E09500FE00D50125C0CE228DA03E1B6
:100CE000EA1D01E19CD10A2A000E0B22122A1A2ABF
:100CF0001B22E9D7B7D901E198D191D10C8E10040C
:100D00000AE1040EA7D9EE50136EEE50146EEE50A9
:100D1000156EEF5032D0030E105C16E10CAE0CD005
:100D20000BDAEFCFE9F10101EA6BEB6BEC6BE9AFAA
:100D300023D0EA69EB691FD0FFD9EFCFE9F10101B8
:100D4000E951136E146A20D0020E105C0CE10CAE57
:100D500006D0030E7FD9B6D9EBAF0ED00CD0030E60
:100D600079D9B0D909D00CAE0AD014DAEB6BEC6BA0
:100D7000EAAF02D0EB69EC69BCD9166E07D00ADA8B
:100D8000E951136EEA51146E156A166A0F5002E1AA
:100D9000010E0E6E1E6A1F6AD950400FE66E000EDD
:100DA000DA20E66EE552E550436EE750426E416A46
:100DB000116A0A0E106E0950780A12E0200A10E03B
:100DC000280A0CE0200A0AE03F0A06E00D0A02E0C9
:100DD000200A08E1020E05D0080E03D0080E0926ED
:100DE000100E106E0CBE02D00C920C94800E0C14DF
:100DF00017E0163415E3E668E668E668E66842D967
:100E000011EC0AF0E552E5CFECF1E5CFEBF1E5CFDF
:100E1000EAF1E7CFE9F101016CD9166E2D0E07D08A
:100E20000CA202D02B0E03D00CA404D0200E206EF6
:100E30001E2A01D0206A0E5005E11350141015101F
:100E4000161061E00101040EE96F1B0EEA6F000E3F
:100E5000EB6F83D9CEEC09F0E552E5CFEFF1E5CFAA
:100E6000EEF1E5CFEDF1E7CFECF10101E951EC2531
:100E7000F36EEA51ED21F46EEB51EE21F86EF4CFF2
:100E8000F7FFF3CFF6FF0800F550126E580E095C1D
:100E900005E1610E125C02E3200E125E5ED9CBEC1E
:100EA00009F0E552E550166EE550156EE550146EEA
:100EB000E750136E42EBE9FF43EBEAFF4206000EF8
:100EC000435A12EBEFFF1E2A135014101510161080
:100ED000B9E10CA619D06F0E095C06E10E501E5C3C
:100EE00013E31E280E6E10D0780E095C09E0580E30
:100EF000095C06E0620E095C03E0420E095C04E155
:100F0000020E1F6E01D01E6A100E0C1407E00D5069
:100F10000E5C04E20F5002E18DEB0EF00E501E5CF1
:100F200003E21E500E5E01D00E6A0E501E241F24D6
:100F3000D8800D5407E20E500D5CD8801E54D88026
:100F40001F54116E010E0C1406E1115004E08AD8F2
:100F500066E10AD9116A205007E010D920EBE6FFBC
:100F600087D802E1EA1D5BE01F500BE007D9300E85
:100F7000E66E7ED802E1EA1D52E0D9D802E1EA1D10
:100F80004EE00E501F5C02E21F500E5E300EE66E09
:100F90000EEBE6FFDCD843E1422A000E432242EB8F
:100FA000E9FF43EBEAFFEF50126E125008E0E6D87B
:100FB00012EBE6FF5DD8F0E1EA1DEEE130D052D849
:100FC0002EE10E501E2411241F240A262CD010506E
:100FD000030A1CE0010A14E0030A07E0ADD8C9D8EF
:100FE0000AEBEEFF0BEBEDFF20D08BD8EC6BEAAFFA
:100FF00002D0EB69EC69A0D84ED8ECC1EEFF15D059
:1010000080D8EABFEB6998D846D80FD095D8B1D828
:101010000AEBEFFF0AD08BD805E1EA1D03E1F36884
:10102000F4680BD00A2A000E0B22D950020F70D898
:10103000CDD40AEBF3FF0BEBF4FF7CE9E5CFDAFF4D
:10104000E7CFD9FF1200D950020F62D80800F5503F
:10105000096E1200005E000E015A00EBE9FF01EB81
:10106000EAFF1200200EE66E11EBE6FFA7EF08F094
:10107000D9EC0BF043E9F3CFE9F1F4CFEAF1010148
:10108000F31C120013EBE6FF14EBE6FF15EBE6FF93
:1010900016EBE6FF12006DD8E9C1EEFFEAC1EEFFE4
:1010A000EBC1EEFF1200D9CFE6FFDACFE6FFE1CFCA
:1010B000D9FFE2CFDAFF12001C500D5C116E54D83C
:1010C0000F501200EECFE9F1EECFEAF1EFCFEBF1E6
:1010D0000101EC6B1200EECFE9F1EFCFEAF1010173
:1010E00012000950E66EE66A43EC0DF042E9F35057
:1010F0001200E951136EEA51146EEB51156EEC516A
:1011000012000AEBE9F10BEBEAF10101EB6B1200C3
:10111000E96E000EDA20EA6EEF2AEECFF6FF000E3F
:10112000EF22EECFF7FFEF22EECFF8FF120026D826
:1011300009EBE6FF38EF08F0020E2AEF08F00A0E7E
:101140001202F3500924D00F126E23EF08F016D8C4
:10115000C2EC04F044E90009120010EBE6FFE66A75
:10116000E66AE66A42EF08F011500A26000E0B22EA
:101170001200EE50EFCFEAFFE96E120005EBE6FF3A
:1011800006EBE6FF1200D8DFEE501C6EED501D6E30
:0A1190001D341200D1DF6BEF08F0F0
:06119A00B1D841E8012874
:1011A000036E0050035C01E3036A035042E9E7CF9A
:1011B000D9FF1200A4D841E8015002E1000401D097
:1011C0000104036E035042E9E7CFD9FF120097D81C
:1011D000230EE66EE66AE66A00EBE6FF01EBE6FF49
:1011E0001AEC0BF045E997D08AD885D8EF5002E089
:1011F000000E01D0010E8FD082D87DD894D802E79E
:10120000E73402D0E750E95D02E2000E01D0010EA2
:1012100082D075D842E86FD8EFCFE9F10101E76ECF
:10122000E91902E7E93502D0E951E75C17E298D8FD
:101230008ED868D8EFCFEBF1EC6BEBBFEC697AD8C6
:10124000EF50036E046A200EE66E5CD87AD85AD846
:10125000E552E750EF6E4FD8EF0602D0036A046AFA
:1012600003EBF3FF04EBF4FF43E9E7CFD9FF1200F0
:101270007CD885E94BD8220E6FD855D802E7E734E1
:1012800002D0E750E95D1CE241D861D83FD8200E7A
:1012900063D8EFCFEBF1EC6BEBBFEC694BD800EB15
:1012A000EFFF200EE66E32D857D84BD82FD8200E3D
:1012B00053D8E552E750EF6E29D8220E4DD8EF2AC9
:1012C0002AD053D884E956D8220E29D8200E27D800
:1012D000210E42D8EF6A00500DE0200EE66EE66A5D
:1012E000E66A48D834D8E9CFE6FFEACFE6FF1AEC41
:1012F0000BF045E910D034D8220EACEF09F035D808
:1013000083E912002DD8210EACEF09F002EBE9FFC2
:1013100003EBEAFF120041E9E7CFD9FF12001CD826
:10132000EF6ABAEF09F0EFCFE9F1200E0101E76EA5
:10133000E9191200E951EB25E96EEA51EC21EA6E58
:101340001200EFCFE6FF29DF42E9E66E1200E9CF97
:10135000E9F1EACFEAF11200E926000EEA221200D2
:1013600000EBE9FF01EBEAFF1200D9CFE6FFE1CF86
:0E137000D9FF120001EBE9FF02EBEAFF1200C9
:02137E0045E840
:10138000D9CFE6FFDACFE6FFE1CFD9FFE2CFDAFF30
:101390008FE90C6A1200F3DF0C8003D0F0DF01D07C
:1013A0000C820B6A0A6A096A086A200EE76ED890F6
:1013B0000436053606360736083609360A360B3641
:1013C0000050085C0150095802500A5803500B584D
:1013D00009E30050085E0150095A02500A5A0350AE
:1013E0000B5A042AE72EE4D70CB212000CB00AD034
:1013F00088EB00F089EB01F08AEB02F08BEB03F055
:101400000CA008D084EB00F085EB01F086EB02F035
:1014100087EB03F0E552E5CFDAFFE7CFD9FF49E9E3
:10142000120044E8D9CFE6FFDACFE6FFE1CFD9FFDB
:10143000E2CFDAFF8EE980EB08F081EB09F082EB76
:101440000AF083EB0BF004500802F350006EF450E6
:10145000016E04500902F3500126000EF420026EC2
:1014600004500A02F3500226000EF420036E0450CA
:101470000B02F350032605500802F3500126F450E6
:101480000222000E032205500902F3500226F450F6
:10149000032205500A02F350032606500802F350B7
:1014A0000226F450032206500902F3500326075087
:1014B0000802F3500326E552E5CFDAFFE7CFD9FF64
:0414C00048E9000CEB
:0C14C4000D0A2020636F756E7420256CEB
:1014D000752C2061646320256C752C206461746117
:1014E00020256C752C206368617220256C752C207A
:1014F000636F6D6D20256C752C20747820696E7477
:1015000020256C750D0A000D0A20206572726F721D
:1015100020636F756E743A2061646320256C752CAE
:1015200020706F727420256C7500202323232320E4
:101530001B5B376D2053504920536C6176652052F8
:101540006561647921201B5B306D20232323230DEB
:101550000A000D0D0D0D0D0D0A2023232323201B42
:101560005B376D2053504920536C6176652052657E
:1015700061647921201B5B306D20232323230D0A16
:101580000032323A30343A3533004F63742031350B
:061590002032303135006D
:0A1596001E0EF66E000EF76E000E3A
:1015A000F86E00010900F550566F0900F550576FAD
:1015B00003E1566701D03DD00900F550516F090095
:1015C000F550526F0900F550536F09000900F550AE
:1015D000E96E0900F550EA6E090009000900F550AE
:1015E000546F0900F550556F09000900F6CF58F007
:1015F000F7CF59F0F8CF5AF051C0F6FF52C0F7FFBD
:1016000053C0F8FF0001545302E1555307E00900AD
:10161000F550EE6E5407F8E25507F9D758C0F6FFBB
:1016200059C0F7FF5AC0F8FF00015607000E575B7C
:04163000BFD712000E
:0C163400FE0EE3CFE9FFFF0EE3CFEAFF5C
:10164000E9CFF3FFEACFF4FFFB0EE35003E1FC0E1A
:10165000E35009E0FB0EE30602E2FC0EE306FD0E9A
:10166000E350EE6EF1D71200FE0EE3CFE9FFFF0E5E
:10167000E3CFEAFFF36AF46AEE5203E0F34AF42A96
:10168000FBD71200FF0EE3CFF8FFE552FF0EE3CFCA
:10169000F7FFE552FF0EE3CFF6FFE552E66AE66A92
:1016A000E66A0900F55209E0FD0EE32A05E1FE0EA7
:1016B000E32A02E1FF0EE32AF4D7FD0EE3CF5BF04D
:0E16C000FE0EE3CF5CF0FF0EE3CF5DF01200F4
:0216CE00D9CF72
:1016D000E6FFDACFE6FFE1CFD9FFE2CFDAFF85E917
:1016E000BA6AA66A02B0BA8802A202D0BA8CA68CE4
:1016F00002B4BA8E02A602D0A68801D0A68A02A899
:1017000002D0BA8401D0BA9402BAA68602AC02D042
:10171000A38A01D0A39A02AE02D0A38801D0A398D5
:1017200000EB7BFF010101EBE9F1EA6BE9C17CFF12
:10173000BA8AA68E41E9E5CFDAFFE7CFD9FF1200DA
:10174000D9CFE6FFDACFE6FFE1CFD9FFE2CFDAFF6C
:1017500087E944E8D9CFE6FFDACFE6FFE552E55066
:101760000A6EE750096E09EBE6FF0AEBE6FF00EBB5
:10177000E6FF01EBE6FF02EBE6FFD950030FE66E52
:10178000000EDA20E66EDBEC04F047E9F350076E5A
:10179000F450086E03EBE9FF04EBEAFFEF6A07EB96
:1017A000F3FF08EBF4FF45E9E5CFDAFFE7CFD9FF18
:0217B000120025
:0E17B200D9CFE6FFDACFE6FFE1CFD9FFE2CFD5
:1017C000DAFF85E9013415E200EBE9FF01EBEAFFFE
:1017D000EECFF3FFEDCFF4FFEE2A000EEF22F3CFB2
:1017E000E9FFF4CFEAFF02EBEFFFEF50F36EF46A8C
:1017F0000DD0FE0E005C05E102EBE6FF74EC0DF08F
:1018000004D002EBE6FF03EC00F041E941E9E5CF4B
:08181000DAFFE7CFD9FF120057
:08181800D9CFE6FFDACFE6FFAD
:10182000E1CFD9FFE2CFDAFF85E93F0EC716C66ADE
:101830000250C6120050C7120150030A09E0010A03
:1018400004E0020A06E1C78C04D0C78CC68801D028
:10185000C6880250050A05E0010A05E19486928ACD
:1018600003D0948601D094969488949AC68A41E9CC
:0A187000E5CFDAFFE7CFD9FF120041
:06187A00D9CFE6FFDACF32
:10188000E6FFE1CFD9FFE2CFDAFF85E9BAA2FED7C2
:1018900000EBF6FF01EBF7FF02EBF8FF0800F5CFD6
:1018A000E6FF2CEC0DF041E9D9CFE9FFDACFEAFFF2
:1018B000EFCFF6FFEE2AEFCFF7FF000EEE22EFCFCD
:1018C000F8FFEE220800F550E1E141E9E5CFDAFF4B
:0618D000E7CFD9FF120072
:0A18D600D9CFE6FFDACFE6FFE1CF3D
:1018E000D9FFE2CFDAFF85E9C26AC16AC06A7C0E1D
:1018F0000114C26E00EBC1FF0250040DF350380B0F
:101900000101EA6F02380F0B070BE96F800E02141A
:10191000E911EA11C06E01AE03D09E9C9D8CF28C41
:0E192000C28041E9E5CFDAFFE7CFD9FF120020
:02192E00D9CF0F
:10193000E6FFDACFE6FFE1CFD9FFE2CFDAFF84E9B5
:10194000F30E0014AA6E7F0E0114E824CD6ECF6A48
:10195000CE6A9E9001AE02D09D8001D09D909E9453
:1019600000A402D09D8401D09D94AABEAA86CD80F9
:0C19700041E9E5CFDAFFE7CFD9FF120014
:04197C00D9CFE6FFDA
:10198000DACFE6FFE1CFD9FFE2CFDAFF84E9BAA2EE
:10199000FED700EBE9FF01EBEAFFEFCFE6FF2CEC0F
:1019A0000DF041E900EBE9FF01EBEAFF002A000E30
:1019B0000122EF50ECE141E9E5CFDAFFE7CFD9FFB3
:0219C000120013
:0E19C200D9CFE6FFDACFE6FFE1CFD9FFE2CFC3
:1019D000DAFF83E97F0E0014D56ED76AD66AF294D7
:1019E00000AE02D0F28A01D0F29AD58E41E9E5CF5D
:0819F000DAFFE7CFD9FF120076
:0819F800D9CFE6FFDACFE6FFCC
:101A0000E1CFD9FFE2CFDAFF84E942E880EB04F0CE
:101A100081EB05F005EBCFFF04EBCEFF43E9E5CF0B
:081A2000DAFFE7CFD9FF120045
:081A2800D9CFE6FFDACFE6FF9B
:101A3000E1CFD9FFE2CFDAFF84E942E880EB04F09E
:101A400081EB05F005EBD7FF04EBD6FF43E9E5CFCB
:081A5000DAFFE7CFD9FF120015
:081A5800D9CFE6FFDACFE6FF6B
:101A6000E1CFD9FFE2CFDAFF83E9BAAC04D0BA9074
:101A700000015FB3BA8000EB79FF41E9E5CFDAFFFF
:061A8000E7CFD9FF1200C0
:0A1A8600F36AF46AFF0EE124E96E32
:101A9000FF0EE220EA6EED6607D02F0EEF6404D051
:0A1AA0003A0EEF6001D0F32A1200A5
:061AAA00410EF36E00EE98
:101AB00000F00E0E01D81200EA6002D0EE6AFCD7E8
:0A1AC000F350E9601200EE6AFCD753
:061ACA001DEE00F02DEE00
:101AD00000F0F86A55EC0DF0CBEC0AF00AEC00F0DF
:081AE00026EC03F0FBD7120015
:081AE800FF0EE350ACBA04D07C
:101AF000AF6AAB8EAC8A949CACA2FED7AD6EF36E8F
:041B0000F46A120071
:0C1B040030313233343536373839616205
:051B100063646566003E
:0B1B15000000000000000000000000C5
:101B200000000000000000000000000000000000B5
:101B300000000000000000000000000000000000A5
:101B40000000000000000000000000000000000095
:101B50000000000000000000000000000000000085
:101B60000000000000000000000000000000000075
:101B70008A15008115000000000000000000000030
:101B80000000000000000000000000000000000055
:101B90000000000000000000000000000000000045
:101BA0000000000000000000000000000000000035
:101BB0000000000000000000000000000000000025
:101BC0000000000000000000000000000000000015
:101BD0000000000000000000000000000000000005
:101BE00000000000000000000000000000000000F5
:0E1BF000000000000000000000000000003AAD
:020000040030CA
:010000005DA2
:0100010018E6
:010002007F7E
:010003002BD1
:010005008872
:010006009168
:010008000FE8
:01000900C036
:01000A000FE6
:01000B00E014
:01000C000FE4
:01000D0040B2
:00000001FF
