:020000040000FA
:0600000039EF0DF01200C3
:020006001200E6
:0600080016EF00F01200EB
:02000E00C2909E
:040010009D9C1200A1
:020014001200D8
:0600180064EF01F012008C
:02001E000100DF
:0C002000BD1A000000010000E10000001B
:04002C00DACFE4FF44
:10003000E9CFE4FFEACFE4FFF3CFE4FFF4CFE4FF3E
:10004000E65201011D2B000E1E231F232023F2A0C8
:1000500003D0F29081CFCCF2F2A41ED0F29460ECE7
:1000600004F00101252B000E262327232823D88006
:10007000050E2555000E2655000E2755000E285555
:1000800003E2295101E0009900014A5105E04A07C5
:1000900003E1499149934B6B9EAC1BD09E9C01019F
:1000A000052B000E062307230823EADBC3CFEEFF50
:1000B000C4CFEDFF0201C75105E00101E1DB68ECAF
:1000C00004F004D00101DCDBEF50C96E01010083B4
:1000D0008B949EA6F2D09E96C9CF46F28B848B80DD
:1000E000A4AA05D07ACFCBF20101E08D0087F00EF3
:1000F00002014615C86F00014981030E4A6F49A3EA
:1001000017D04B51010A07E0010A0BE146C2CFF2BA
:10011000D2C2C9FF0BD046C2D0F2CFC202F0D0C2C9
:1001200003F00201466B000149938A944B2B8B9498
:10013000F00E0201465D15E100014951020B11E18B
:100140008A8401012B5103E1010E2B6F2A6F0001FC
:1001500049834B6B00C0D1F201C0D2F2D1C2C9FFBA
:100160008B94000149B3A9D0A00E0201C85D13E130
:100170008150C96E0F0E4615C96F01010D2B000E7F
:100180000E230F2310231DC121F11EC122F11FC117
:1001900023F120C124F1D00E0201C85D11E1030E4C
:1001A0004615100DF350C911836E0C0E4615100D37
:1001B000F350806E0101008983DBF294E0C1C9FF36
:1001C000B00EC85D0CE10F0E4615CA6F8B80CBC216
:1001D000C9FF0101152B000E162317231823E00E6B
:1001E0000201C85D11E1BAA206D00F0E4615100D2E
:1001F000F350CA11796EE0C1C9FF01013A0EE06FF8
:10020000009700895DDBF294800EC85D03E0900EDC
:10021000C85D28E146AD03D0010EC76F01D0C76BA2
:100220000F0E46150101DF6F040EDF5D01E1DF6B8C
:10023000DF51090801E2DF6BC2B210D0030EC21415
:100240000101E86F0101DF51040DF3507C0B010146
:10025000E811C26E01010093C28204D0C292E0C1D3
:10026000C9FF0093C00E0201C85D11E1C2B20DD0FA
:10027000C75105E0010104DBEF50C96E03D0010155
:10028000FFDA26DB1DDBF29402D0E0C1C9FFC851C2
:1002900009E1E0C1C9FF0101256B266B276B286BC3
:1002A000010E296F100E0201C85D05E1CBC2C9FF26
:1002B00001013A0EE06FC2A28B94E552E5CFF4FF44
:1002C000E5CFF3FF1DDB1100D8CFE4FFE0CFE4FF63
:1002D000E46EDACFE4FFE2CFDAFFE9CFE4FFEACF62
:1002E000E4FFD9CFE4FFDACFE4FF5BC0E4FF5CC0FA
:1002F000E4FF5DC0E4FF5EC0E4FFF6CFE4FFF7CFAC
:10030000E4FFF8CFE4FFF5CFE4FFF3CFE4FFF4CF51
:10031000E4FFFACFE4FFFBCFE4FFE6529EA077D0E4
:100320000001042B000E0523062307239E90FDDA0F
:1003300000018350010B02E0008101D00091835045
:10034000020B02E0008301D000938350040B02E013
:10035000008501D000958350080B02E0008701D092
:1003600000978350100B02E0008901D00099835060
:10037000200B02E0008B01D0009B8350400B02E079
:10038000008D01D0009D8350800B02E0008F01D0D2
:10039000009F8450010B02E0018101D00191845043
:1003A000020B02E0018301D001938450040B02E0B0
:1003B000018501D0019549B306D000C0D3F201C038
:1003C000D4F2D3C2C9FF0251010B02E0898001D0EF
:1003D00089900251020B02E0898201D08992025178
:1003E000040B02E0898401D089940251080B02E0D9
:1003F000898601D089960251100B02E08A8001D0D3
:100400008A900251800B02E08A8601D08A96E552DA
:10041000E5CFFBFFE5CFFAFFE5CFF4FFE5CFF3FF34
:10042000E5CFF5FFE5CFF8FFE5CFF7FFE5CFF6FF26
:10043000E5CF5EF0E5CF5DF0E5CF5CF0E5CF5BF0BA
:10044000E5CFDAFFE5CFD9FF5BDAE550E5CFE0FF96
:10045000E5CFD8FF1000D9CFE6FFE1CFD9FF86E97D
:100460000201D56BD66BD76BD86B0201D551015CFD
:10047000D6510258D7510358D85104580BE3000005
:10048000005001E004000201D52B000ED623D72333
:10049000D823EBD741E9E7CFD9FF12000101010EC4
:1004A0002B6FD0A65B6F7F50080B05E07F50800B51
:1004B00002E1010E5C6F4F0EA616BA9ACF0EA3167C
:1004C00007EC00F0700ED36E400E9B6E906A0F0129
:1004D0005D6B5C6B926A936A946A9568568F9668B6
:1004E000568D89688A688B68928A94969488949AC3
:1004F000FFD9D1D90001499149934B6BF18EF29606
:100500000F015A6BD08EF28EF28CC69CC69E1200E2
:10051000FED901012B6BD0B602D0010E5B6F7F506C
:10052000080B05E07F50800B02E1010E5C6F000EAE
:10053000016F020E026F230E036F020E046F01C1E2
:10054000E6FF02C1E6FFC2EC08F042E903C1E6FFA4
:1005500004C1E6FFC2EC08F042E9700ED36E400E13
:100560009B6E906A3F0E926EC00E896E3B0E936E2C
:10057000F19EF296F298F292F2900F015A6B980E59
:10058000946E810E956E8C68070E966E9486948894
:10059000949A928A94949280928292849286928A79
:1005A00096809682968493829388949C948E959C50
:1005B000958EF70EE66E830EE66EE30EE66E3FEC6A
:1005C0000CF043E90F01EF0E5D6F030E5C6FE00E60
:1005D000C16E9D8C9F8C8CD93A0EC96E330EE66E1F
:1005E000E66A2C0EE66E3BEC0BF043E97C6A330EB8
:1005F0007B6E51D99D86D08E91D9F28EF29CC69C8D
:10060000C69E42E9E7CFD9FF120001012A5108E056
:10061000F29EF29C2A6B2B5102E188EF02F03EDF42
:10062000120075D90101256B266B276B286B296B8E
:100630000089010E2A6F2B6BE8DF010EE66EF40EC7
:10064000E66E010EE66EE66AE66A05DF45E9FA0E39
:10065000E66E140EE66E000EE66E11EC0CF043E949
:10066000D20EE66E140EE66E000EE66E11EC0CF085
:1006700043E93F0E8C6EC00E896E8B808B80C5DF88
:10068000C650800B03E1C650400B44E0C69CC69E9A
:10069000090EE96E010EEA6EEE500101055D096F6B
:1006A000EE5006590A6FEE5007590B6FEE5008597D
:1006B0000C6F110EE96E010EEA6EEE500D5D116FBA
:1006C000EE500E59126FEE500F59136FEE50105935
:1006D000146F38C1E6FF39C1E6FF3AC1E6FF3BC1FE
:1006E000E6FF30C1E6FF31C1E6FF32C1E6FF33C1AC
:1006F000E6FFAF0EE66E140EE66E000EE66EF3D861
:1007000074EC0BF04DE901012B5104E1ECD892ECB3
:100710000CF042E9A650020B03E1A650040B19E0CD
:10072000A6A402D08B7001D08B90A698A688190E33
:10073000E96E010EEA6EEE500101155D196FEE5083
:1007400016591A6FEE5017591B6FEE5018591C6F3F
:10075000E5D8F29E05C12CF106C12DF107C12EF19D
:1007600008C12FF109C130F10AC131F10BC132F1D9
:100770000CC133F10DC134F10EC135F10FC136F1A9
:1007800010C137F111C138F112C139F113C13AF179
:1007900014C13BF115C13CF116C13DF117C13EF149
:1007A00018C13FF119C140F11AC141F11BC142F119
:1007B0001CC143F11DC144F11EC145F11FC146F1E9
:1007C00020C147F121C148F122C149F123C14AF1B9
:1007D00024C14BF125C14CF126C14DF127C14EF189
:1007E00028C14FF129C150F12AC151F12BC152F159
:1007F000F28E0101010EE66EC00EE66E270EE66E69
:10080000090EE66EE66A27DE45E94CC1E6FF4DC1FA
:10081000E6FF4EC1E6FF4FC1E6FF3CC1E6FF3DC12A
:10082000E6FF3EC1E6FF3FC1E6FF34C1E6FF35C14A
:10083000E6FF36C1E6FF37C1E6FF2CC1E6FF2DC15A
:10084000E6FF2EC1E6FF2FC1E6FF44C1E6FF45C12A
:10085000E6FF46C1E6FF47C1E6FF7A0EE66E140EDC
:10086000E66E000EE66E3FD874EC0BF059E901011C
:100870002B5101E004D737D892EC0CF042E9FFD6B7
:10088000DF51E96EEA6AD890E936EA365D0EE9266C
:10089000010EEA221200970EE66EB5EC0CF041E96B
:1008A000E66A7D0EE66EE8EC0CF042E9E66A9B0E25
:1008B000E66E6BEC0CF042E99F9037D89E961200E2
:1008C0000201CD6B7D0ECE6FD76ECDC2D6FF12006A
:1008D000EECFE8F1EFCFE9F10101E9C1E8F1E96B11
:1008E000E8C1C9FF1200470EE66E020EE66E120066
:1008F000E66AE66A040EE66EE0EC0BF043E91200ED
:10090000E5CFEAFFE5CFE9FFE5CFDAFF1200D9CF67
:10091000E6FFE1CFD9FF81E941E812007A50016E8C
:100920007A50016E7A50016E1200600EE66E6D0E06
:0A093000E66ED0EC0CF042E9120074
:06093A0090DB86E901508C
:10094000010600090CE002EBE6FF03EBE6FF00EB1B
:10095000E6FF69DBF4E1E21DF2E1010E01D0000ED9
:1009600041E9E5CFDAFFE7CFD9FF120077DB89E96C
:100970007BE80A6A0B6A02EBF6FF03EBF7FF04EB76
:10098000F8FF0800F550096E095001E12DD3250E3E
:10099000095C01E01BD30C6A0D6A0E6A0F6A106ACB
:1009A0002DDB2D0E095C0CE02B0E095C09E0200EFE
:1009B000095C06E0230E095C03E0300E095C15E1DA
:1009C0000950300A10E0130A0CE0030A08E00B0A91
:1009D00004E0060AE5E10C80E3D70C82E1D70C8441
:1009E000DFD70C86DDD70C88DBD72A0E095C13E134
:1009F000A5DB0DE30C801CEBE1F11DEBE2F1010145
:100A0000E16DE21F000EE223E1510D6E02D09CEB7E
:100A10000DF0F4DA07D0126A3FDB02E06BDBFCD7A3
:100A200092EB0DF00CB00C982E0E095C15E1E6DA95
:100A30002A0E095C08E182DB04E29CEB0EF0010E59
:100A40000F6EDCDA09D0126A27DB02E053DBFCD739
:100A500092EB0EF0010E0F6E680E095C07E1CEDA24
:100A6000680E095C1DE1030E106E19D0740E095C4E
:100A700016E07A0E095C13E0480E095C06E0540E9D
:100A8000095C03E05A0E095C02E1020E07D06C0E0D
:100A9000095C03E06A0E095C03E1010E106EAEDA38
:100AA00009506E0A01E16ED21E0A01E128D1200A26
:100AB00001E125D13F0A01E1FDD01A0A01E1FAD096
:100AC0000D0A01E1F7D0200A01E1F4D03A0A01E170
:100AD000F1D0200A01E1EED0260A01E1EAD00D0AA8
:100AE00001E1E7D01A0A01E19ED0200A3BE0300A7A
:100AF0001AE0460A0EE0250A01E072D2D950020F30
:100B0000E96E000EDA20EA6E010EEE5E000EEE5A7D
:100B1000EE5A0FDB250EE66E86DA03E1E21D01E1F7
:100B200059D20A2A5BD2116A0D50010803E20D0462
:100B3000116EF5DA115007E0010E0C1404E16DDAC4
:100B400001E048D2116AD3DAEF50096ECBDA03E143
:100B5000E21D01E13FD20A2A000E0B225EDA01E11A
:100B60003FD238D2020E105C08E1030E4EDAEE508E
:100B7000176EEE50186EEF5007D0E7DAE36BE151D5
:100B8000176EE251186EE351196E17EBE6FF18EB82
:100B9000E6FF19EBE6FF16EC0BF043E95BC0E1F171
:100BA0005CC0E2F15DC0E3F10101E1511C6EE25174
:100BB0001D6E0F5006E01C500E5C03E20E501C6EC2
:100BC0001D6A1C500D5C02E29CEB0DF050DA05E052
:100BD0000D500E5C02E28EEB0DF00CB004D01DDA6D
:100BE00001E0F8D1116A126A17EBF6FF18EBF7FF74
:100BF00019EBF8FF0800F550096E095010E00D5090
:100C0000125C0DE26FDA03E1E21D01E1E3D10A2A91
:100C1000000E0B22122AD950170F55DAEBD7FDD947
:100C200001E1DED1D7D163DAEE501A6EED501B6EC2
:100C30001AEBE6FF1BEBE6FF08EC0BF042E9F35082
:100C40001C6EF4501D6E0F5006E01C500E5C03E24B
:100C50000E501C6E1D6A1C500D5C02E29CEB0DF0E8
:100C600006DA05E00D500E5C02E28EEB0DF00CB0E2
:100C700004D0D3D901E0AED1116A126A1AEBE9FFB0
:100C80001BEBEAFFEF50096E09500FE00D50125CAC
:100C90000CE228DA03E1E21D01E19CD10A2A000EF0
:100CA0000B22122A1A2A1B22E9D7B7D901E198D1BF
:100CB00091D10C8E10040AE1040EA7D9EE50136EE8
:100CC000EE50146EEE50156EEF5032D0030E105CE5
:100CD00016E10CAE0CD00BDAEFCFE1F10101E26BC3
:100CE000E36BE46BE1AF23D0E269E3691FD0FFD986
:100CF000EFCFE1F10101E151136E146A20D0020E31
:100D0000105C0CE10CAE06D0030E7FD9B6D9E3AF70
:100D10000ED00CD0030E79D9B0D909D00CAE0AD0C0
:100D200014DAE36BE46BE2AF02D0E369E469BCD9A7
:100D3000166E07D00ADAE151136EE251146E156A8D
:100D4000166A0F5002E1010E0E6E1E6A1F6AD9501C
:100D5000400FE66E000EDA20E66EE552E550436E77
:100D6000E750426E416A116A0A0E106E0950780A05
:100D700012E0200A10E0280A0CE0200A0AE03F0AEC
:100D800006E00D0A02E0200A08E1020E05D0080E76
:100D900003D0080E0926100E106E0CBE02D00C9265
:100DA0000C94800E0C1417E0163415E3E668E66820
:100DB000E668E66842D9ECEC09F0E552E5CFE4F1EB
:100DC000E5CFE3F1E5CFE2F1E7CFE1F101016CD945
:100DD000166E2D0E07D00CA202D02B0E03D00CA441
:100DE00004D0200E206E1E2A01D0206A0E5005E18C
:100DF000135014101510161061E00101AC0EE16FD4
:100E00001A0EE26F000EE36F83D9A9EC09F0E552E8
:100E1000E5CFE7F1E5CFE6F1E5CFE5F1E7CFE4F1A6
:100E20000101E151E425F36EE251E521F46EE35155
:100E3000E621F86EF4CFF7FFF3CFF6FF0800F55088
:100E4000126E580E095C05E1610E125C02E3200E81
:100E5000125E5ED9A6EC09F0E552E550166EE5503B
:100E6000156EE550146EE750136E42EBE9FF43EB4D
:100E7000EAFF4206000E435A12EBEFFF1E2A135000
:100E8000141015101610B9E10CA619D06F0E095CDC
:100E900006E10E501E5C13E31E280E6E10D0780E75
:100EA000095C09E0580E095C06E0620E095C03E08B
:100EB000420E095C04E1020E1F6E01D01E6A100E84
:100EC0000C1407E00D500E5C04E20F5002E18DEBB4
:100ED0000EF00E501E5C03E21E500E5E01D00E6A34
:100EE0000E501E241F24D8800D5407E20E500D5CB6
:100EF000D8801E54D8801F54116E010E0C1406E1C8
:100F0000115004E08AD866E10AD9116A205007E03E
:100F100010D920EBE6FF87D802E1E21D5BE01F500D
:100F20000BE007D9300EE66E7ED802E1E21D52E0FA
:100F3000D9D802E1E21D4EE00E501F5C02E21F50C4
:100F40000E5E300EE66E0EEBE6FFDCD843E1422A81
:100F5000000E432242EBE9FF43EBEAFFEF50126E33
:100F6000125008E0E6D812EBE6FF5DD8F0E1E21D92
:100F7000EEE130D052D82EE10E501E2411241F2451
:100F80000A262CD01050030A1CE0010A14E0030AC0
:100F900007E0ADD8C9D80AEBEEFF0BEBEDFF20D090
:100FA0008BD8E46BE2AF02D0E369E469A0D84ED8F5
:100FB000E4C1EEFF15D080D8E2BFE36998D846D8E7
:100FC0000FD095D8B1D80AEBEFFF0AD08BD805E146
:100FD000E21D03E1F368F4680BD00A2A000E0B222D
:100FE000D950020F70D8CDD40AEBF3FF0BEBF4FF0E
:100FF0007CE9E5CFDAFFE7CFD9FF1200D950020F25
:1010000062D80800F550096E1200005E000E015A09
:1010100000EBE9FF01EBEAFF1200200EE66E11EB98
:10102000E6FF82EF08F0ADEC0BF043E9F3CFE1F11E
:10103000F4CFE2F10101F31C120013EBE6FF14EB15
:10104000E6FF15EBE6FF16EBE6FF12006DD8E1C1F7
:10105000EEFFE2C1EEFFE3C1EEFF1200D9CFE6FFE3
:10106000DACFE6FFE1CFD9FFE2CFDAFF12001C5062
:101070000D5C116E54D80F501200EECFE1F1EECF9F
:10108000E2F1EFCFE3F10101E46B1200EECFE1F109
:10109000EFCFE2F1010112000950E66EE66A17ECAB
:1010A0000DF042E9F3501200E151136EE251146E5B
:1010B000E351156EE45112000AEBE1F10BEBE2F1A2
:1010C0000101E36B1200E96E000EDA20EA6EEF2AEE
:1010D000EECFF6FF000EEF22EECFF7FFEF22EECFBE
:1010E000F8FF120026D809EBE6FF13EF08F0020E16
:1010F00005EF08F00A0E1202F3500924D00F126E09
:10110000FEEF07F016D89DEC04F044E90009120048
:1011100010EBE6FFE66AE66AE66A1DEF08F011509A
:101120000A26000E0B221200EE50EFCFEAFFE96E06
:10113000120005EBE6FF06EBE6FF1200D8DFEE50EB
:101140001C6EED501D6E1D341200D1DF46EF08F00D
:10115000B1D841E80128036E0050035C01E3036A43
:10116000035042E9E7CFD9FF1200A4D841E801506B
:1011700002E1000401D00104036E035042E9E7CF0D
:10118000D9FF120097D8230EE66EE66AE66A00EBF6
:10119000E6FF01EBE6FFEEEC0AF045E997D08AD8CE
:1011A00085D8EF5002E0000E01D0010E8FD082D81A
:1011B0007DD894D802E7E73402D0E750E15D02E23F
:1011C000000E01D0010E82D075D842E86FD8EFCF63
:1011D000E1F10101E76EE11902E7E13502D0E151E9
:1011E000E75C17E298D88ED868D8EFCFE3F1E46BCC
:1011F000E3BFE4697AD8EF50036E046A200EE66E0E
:101200005CD87AD85AD8E552E750EF6E4FD8EF063F
:1012100002D0036A046A03EBF3FF04EBF4FF43E933
:10122000E7CFD9FF12007CD885E94BD8220E6FD8C2
:1012300055D802E7E73402D0E750E15D1CE241D81F
:1012400061D83FD8200E63D8EFCFE3F1E46BE3BF62
:10125000E4694BD800EBEFFF200EE66E32D857D88A
:101260004BD82FD8200E53D8E552E750EF6E29D82F
:10127000220E4DD8EF2A2AD053D884E956D8220E10
:1012800029D8200E27D8210E42D8EF6A00500DE051
:10129000200EE66EE66AE66A48D834D8E9CFE6FF63
:1012A000EACFE6FFEEEC0AF045E910D034D8220E82
:1012B00087EF09F035D883E912002DD8210E87EF8A
:1012C00009F002EBE9FF03EBEAFF120041E9E7CF87
:1012D000D9FF12001CD8EF6A95EF09F0EFCFE1F1CA
:1012E000200E0101E76EE1191200E151E325E96EDC
:1012F000E251E421EA6E1200EFCFE6FF29DF42E976
:10130000E66E1200E9CFE1F1EACFE2F11200E92640
:10131000000EEA22120000EBE9FF01EBEAFF1200E7
:10132000D9CFE6FFE1CFD9FF120001EBE9FF02EBD5
:04133000EAFF1200BE
:0C13340045E8D9CFE6FFDACFE6FFE1CFB5
:10134000D9FFE2CFDAFF8FE90C6A1200F3DF0C80DD
:1013500003D0F0DF01D00C820B6A0A6A096A086ABE
:10136000200EE76ED8900436053606360736083666
:1013700009360A360B360050085C015009580250F5
:101380000A5803500B5809E30050085E0150095AEF
:1013900002500A5A03500B5A042AE72EE4D70CB223
:1013A00012000CB00AD088EB00F089EB01F08AEB58
:1013B00002F08BEB03F00CA008D084EB00F085EB7F
:1013C00001F086EB02F087EB03F0E552E5CFDAFFA0
:1013D000E7CFD9FF49E9120044E8D9CFE6FFDACFD9
:1013E000E6FFE1CFD9FFE2CFDAFF8EE980EB08F02C
:1013F00081EB09F082EB0AF083EB0BF0045008025A
:10140000F350006EF450016E04500902F3500126AF
:10141000000EF420026E04500A02F3500226000E61
:10142000F420036E04500B02F3500326055008020B
:10143000F3500126F4500222000E03220550090247
:10144000F3500226F450032205500A02F3500326FB
:1014500006500802F3500226F450032206500902F7
:10146000F350032607500802F3500326E552E5CF58
:0A147000DAFFE7CFD9FF48E9000CCE
:06147A000D0A2020636F43
:10148000756E7420256C752C2061646320256C7545
:101490002C206461746120256C752C206368617256
:1014A00020256C752C20636F6D6D20256C75000DEB
:1014B0000A20206572726F7220636F756E743A2015
:1014C00061646320256C752C20706F727420256C0C
:1014D00075002023232323201B5B376D20535049A5
:1014E00020536C61766520526561647921201B5B15
:1014F000306D20232323230D0A000D0D0D0D0D0D3E
:101500000A2023232323201B5B376D2053504920BF
:10151000536C61766520526561647921201B5B30D4
:101520006D20232323230D0A0032313A31353A3519
:0E15300036004F6374203134203230313500E4
:02153E001E0E7F
:10154000F66E000EF76E000EF86E00010900F55001
:10155000566F0900F550576F03E1566701D03DD033
:101560000900F550516F0900F550526F0900F55010
:10157000536F09000900F550E96E0900F550EA6E55
:10158000090009000900F550546F0900F550556F26
:1015900009000900F6CF58F0F7CF59F0F8CF5AF00C
:1015A00051C0F6FF52C0F7FF53C0F8FF000154537B
:1015B00002E1555307E00900F550EE6E5407F8E2DA
:1015C0005507F9D758C0F6FF59C0F7FF5AC0F8FFC2
:0C15D00000015607000E575BBFD7120049
:0415DC00FE0EE3CF4D
:1015E000E9FFFF0EE3CFEAFFE9CFF3FFEACFF4FF15
:1015F000FB0EE35003E1FC0EE35009E0FB0EE306B3
:1016000002E2FC0EE306FD0EE350EE6EF1D712008F
:10161000FE0EE3CFE9FFFF0EE3CFEAFFF36AF46AC1
:10162000EE5203E0F34AF42AFBD71200FF0EE3CF99
:10163000F8FFE552FF0EE3CFF7FFE552FF0EE3CFD1
:10164000F6FFE552E66AE66AE66A0900F55209E045
:10165000FD0EE32A05E1FE0EE32A02E1FF0EE32A76
:10166000F4D7FD0EE3CF5BF0FE0EE3CF5CF0FF0E90
:06167000E3CF5DF0120063
:0A167600D9CFE6FFDACFE6FFE1CF9F
:10168000D9FFE2CFDAFF85E9BA6AA66A02B0BA8862
:1016900002A202D0BA8CA68C02B4BA8E02A602D0E4
:1016A000A68801D0A68A02A802D0BA8401D0BA9432
:1016B00002BAA68602AC02D0A38A01D0A39A02AED7
:1016C00002D0A38801D0A39800EB7BFF010101EBBE
:1016D000E1F1E26BE1C17CFFBA8AA68E41E9E5CF78
:0816E000DAFFE7CFD9FF120089
:0816E800D9CFE6FFDACFE6FFDF
:1016F000E1CFD9FFE2CFDAFF87E944E8D9CFE6FFAF
:10170000DACFE6FFE552E5500A6EE750096E09EBC5
:10171000E6FF0AEBE6FF00EBE6FF01EBE6FF02EB7C
:10172000E6FFD950030FE66E000EDA20E66EB6EC47
:1017300004F047E9F350076EF450086E03EBE9FF3D
:1017400004EBEAFFEF6A07EBF3FF08EBF4FF45E970
:0A175000E5CFDAFFE7CFD9FF120062
:06175A00D9CFE6FFDACF53
:10176000E6FFE1CFD9FFE2CFDAFF85E9013415E2E8
:1017700000EBE9FF01EBEAFFEECFF3FFEDCFF4FF63
:10178000EE2A000EEF22F3CFE9FFF4CFEAFF02EBDF
:10179000EFFFEF50F36EF46A0DD0FE0E005C05E132
:1017A00002EBE6FF48EC0DF004D002EBE6FF03ECA1
:1017B00000F041E941E9E5CFDAFFE7CFD9FF1200B8
:1017C000D9CFE6FFDACFE6FFE1CFD9FFE2CFDAFFEC
:1017D00085E93F0EC716C66A0250C6120050C712EE
:1017E0000150030A09E0010A04E0020A06E1C78C7D
:1017F00004D0C78CC68801D0C6880250050A05E00F
:10180000010A05E19486928A03D0948601D09496C9
:101810009488949AC68A41E9E5CFDAFFE7CFD9FFE9
:021820001200B4
:0E182200D9CFE6FFDACFE6FFE1CFD9FFE2CF64
:10183000DAFF85E9BAA2FED700EBF6FF01EBF7FF6E
:1018400002EBF8FF0800F5CFE6FF00EC0DF041E9F0
:10185000D9CFE9FFDACFEAFFEFCFF6FFEE2AEFCFDD
:10186000F7FF000EEE22EFCFF8FFEE220800F55052
:0E187000E1E141E9E5CFDAFFE7CFD9FF120051
:02187E00D9CFC0
:10188000E6FFDACFE6FFE1CFD9FFE2CFDAFF85E965
:10189000C26AC16AC06A7C0E0114C26E00EBC1FF4D
:1018A0000250040DF350380B0101E26F02380F0BA8
:1018B000070BE16F800E0214E111E211C06E01AE60
:1018C00003D09E9C9D8CF28CC28041E9E5CFDAFF6B
:0618D000E7CFD9FF120072
:0A18D600D9CFE6FFDACFE6FFE1CF3D
:1018E000D9FFE2CFDAFF84E9F30E0014AA6E7F0E6F
:1018F0000114E824CD6ECF6ACE6A9E9001AE02D06C
:101900009D8001D09D909E9400A402D09D8401D022
:101910009D94AABEAA86CD8041E9E5CFDAFFE7CF44
:04192000D9FF1200D9
:0C192400D9CFE6FFDACFE6FFE1CFD9FF14
:10193000E2CFDAFF84E9BAA2FED700EBE9FF01EBC0
:10194000EAFFEFCFE6FF00EC0DF041E900EBE9FF25
:1019500001EBEAFF002A000E0122EF50ECE141E921
:0A196000E5CFDAFFE7CFD9FF120050
:06196A00D9CFE6FFDACF41
:10197000E6FFE1CFD9FFE2CFDAFF83E97F0E001463
:10198000D56ED76AD66AF29400AE02D0F28A01D040
:10199000F29AD58E41E9E5CFDAFFE7CFD9FF120001
:1019A000D9CFE6FFDACFE6FFE1CFD9FFE2CFDAFF0A
:1019B00084E942E880EB04F081EB05F005EBCFFF12
:1019C00004EBCEFF43E9E5CFDAFFE7CFD9FF120002
:1019D000D9CFE6FFDACFE6FFE1CFD9FFE2CFDAFFDA
:1019E00084E942E880EB04F081EB05F005EBD7FFDA
:1019F00004EBD6FF43E9E5CFDAFFE7CFD9FF1200CA
:101A0000D9CFE6FFDACFE6FFE1CFD9FFE2CFDAFFA9
:101A100083E9BAAC04D0BA9000015FB3BA8000EB9E
:0E1A200079FF41E9E5CFDAFFE7CFD9FF1200E9
:021A2E00F36A59
:101A3000F46AFF0EE124E96EFF0EE220EA6EED6625
:101A400007D02F0EEF6404D03A0EEF6001D0F32AD6
:021A5000120082
:0E1A5200410EF36E00EE00F00E0E01D81200F1
:101A6000EA6002D0EE6AFCD7F350E9601200EE6A39
:021A7000FCD7A1
:0E1A72001DEE00F02DEE00F0F86A29EC0DF0EC
:101A80009FEC0AF00AEC00F011EC03F0FBD7120017
:101A9000FF0EE350ACBA04D0AF6AAB8EAC8A949C14
:0C1AA000ACA2FED7AD6EF36EF46A12002B
:041AAC003031323370
:0D1AB000343536373839616263646566008D
:031ABD0000000026
:101AC0000000000000000000000000000000000016
:101AD0000000000000000000000000000000000006
:101AE00000000000000000000000000000000000F6
:101AF00000000000000000000000000000000000E6
:101B000000000000000000000000000000000000D5
:101B10003215002915000000000000000000000040
:101B200000000000000000000000000000000000B5
:101B300000000000000000000000000000000000A5
:101B40000000000000000000000000000000000095
:101B50000000000000000000000000000000000085
:101B60000000000000000000000000000000000075
:101B70000000000000000000000000000000000065
:101B80000000000000000000000000000000000055
:0E1B9000000000000000000000000000003A0D
:020000040030CA
:010000005DA2
:0100010018E6
:010002007F7E
:010003002BD1
:010005008872
:010006009168
:010008000FE8
:01000900C036
:01000A000FE6
:01000B00E014
:01000C000FE4
:01000D0040B2
:00000001FF
