:020000040000FA
:0600000070EF0BF012008E
:020006001200E6
:0600080019EF04F01200E4
:02000E000100EF
:0C0010002E17000000010000DB000000C3
:04001C0090DB86E906
:100020000150010600090CE002EBE6FF03EBE6FFDE
:1000300000EBE6FF69DBF4E1E61DF2E1010E01D021
:10004000000E41E9E5CFDAFFE7CFD9FF120077DBF9
:1000500089E97BE80A6A0B6A02EBF6FF03EBF7FF1C
:1000600004EBF8FF0800F550096E095001E12DD3AB
:10007000250E095C01E01BD30C6A0D6A0E6A0F6A3B
:10008000106A2DDB2D0E095C0CE02B0E095C09E0DB
:10009000200E095C06E0230E095C03E0300E095CCB
:1000A00015E10950300A10E0130A0CE0030A08E0D9
:1000B0000B0A04E0060AE5E10C80E3D70C82E1D7E5
:1000C0000C84DFD70C86DDD70C88DBD72A0E095CC1
:1000D00013E1A5DB0DE30C801CEBE5F11DEBE6F174
:1000E0000101E56DE61F000EE623E5510D6E02D01D
:1000F0009CEB0DF0F4DA07D0126A3FDB02E06BDB19
:10010000FCD792EB0DF00CB00C982E0E095C15E1AB
:10011000E6DA2A0E095C08E182DB04E29CEB0EF0D1
:10012000010E0F6EDCDA09D0126A27DB02E053DB26
:10013000FCD792EB0EF0010E0F6E680E095C07E122
:10014000CEDA680E095C1DE1030E106E19D0740E34
:10015000095C16E07A0E095C13E0480E095C06E0C3
:10016000540E095C03E05A0E095C02E1020E07D04E
:100170006C0E095C03E06A0E095C03E1010E106E6F
:10018000AEDA09506E0A01E16ED21E0A01E128D1F1
:10019000200A01E125D13F0A01E1FDD01A0A01E15F
:1001A000FAD00D0A01E1F7D0200A01E1F4D03A0AB1
:1001B00001E1F1D0200A01E1EED0260A01E1EAD006
:1001C0000D0A01E1E7D01A0A01E19ED0200A3BE0C6
:1001D000300A1AE0460A0EE0250A01E072D2D95030
:1001E000020FE96E000EDA20EA6E010EEE5E000EDE
:1001F000EE5AEE5A0FDB250EE66E86DA03E1E61DB7
:1002000001E159D20A2A5BD2116A0D50010803E2BA
:100210000D04116EF5DA115007E0010E0C1404E123
:100220006DDA01E048D2116AD3DAEF50096ECBDA09
:1002300003E1E61D01E13FD20A2A000E0B225EDA3D
:1002400001E13FD238D2020E105C08E1030E4EDA13
:10025000EE50176EEE50186EEF5007D0E7DAE76BEE
:10026000E551176EE651186EE751196E17EBE6FF70
:1002700018EBE6FF19EBE6FF8CEC09F043E9ECC163
:10028000E5F1EDC1E6F1EEC1E7F10101E5511C6ECA
:10029000E6511D6E0F5006E01C500E5C03E20E503E
:1002A0001C6E1D6A1C500D5C02E29CEB0DF050DAD6
:1002B00005E00D500E5C02E28EEB0DF00CB004D0A8
:1002C0001DDA01E0F8D1116A126A17EBF6FF18EB9C
:1002D000F7FF19EBF8FF0800F550096E095010E020
:1002E0000D50125C0DE26FDA03E1E61D01E1E3D18E
:1002F0000A2A000E0B22122AD950170F55DAEBD713
:10030000FDD901E1DED1D7D163DAEE501A6EED509E
:100310001B6E1AEBE6FF1BEBE6FF7EEC09F042E9F1
:10032000F3501C6EF4501D6E0F5006E01C500E5C16
:1003300003E20E501C6E1D6A1C500D5C02E29CEB29
:100340000DF006DA05E00D500E5C02E28EEB0DF0CA
:100350000CB004D0D3D901E0AED1116A126A1AEB05
:10036000E9FF1BEBEAFFEF50096E09500FE00D505B
:10037000125C0CE228DA03E1E61D01E19CD10A2AB5
:10038000000E0B22122A1A2A1B22E9D7B7D901E143
:1003900098D191D10C8E10040AE1040EA7D9EE5029
:1003A000136EEE50146EEE50156EEF5032D0030EF9
:1003B000105C16E10CAE0CD00BDAEFCFE5F10101C9
:1003C000E66BE76BE86BE5AF23D0E669E7691FD022
:1003D000FFD9EFCFE5F10101E551136E146A20D08A
:1003E000020E105C0CE10CAE06D0030E7FD9B6D91C
:1003F000E7AF0ED00CD0030E79D9B0D909D00CAE2E
:100400000AD014DAE76BE86BE6AF02D0E769E86977
:10041000BCD9166E07D00ADAE551136EE651146E98
:10042000156A166A0F5002E1010E0E6E1E6A1F6AEF
:10043000D950400FE66E000EDA20E66EE552E55028
:10044000436EE750426E416A116A0A0E106E0950FF
:10045000780A12E0200A10E0280A0CE0200A0AE0DC
:100460003F0A06E00D0A02E0200A08E1020E05D06C
:10047000080E03D0080E0926100E106E0CBE02D016
:100480000C920C94800E0C1417E0163415E3E668F9
:10049000E668E668E66842D962EC08F0E552E5CF26
:1004A000E8F1E5CFE7F1E5CFE6F1E7CFE5F10101CE
:1004B0006CD9166E2D0E07D00CA202D02B0E03D0D5
:1004C0000CA404D0200E206E1E2A01D0206A0E50EB
:1004D00005E1135014101510161061E001011A0EF9
:1004E000E56F170EE66F000EE76F83D91FEC08F07B
:1004F000E552E5CFEBF1E5CFEAF1E5CFE9F1E7CF62
:10050000E8F10101E551E825F36EE651E921F46EC9
:10051000E751EA21F86EF4CFF7FFF3CFF6FF0800BA
:10052000F550126E580E095C05E1610E125C02E393
:10053000200E125E5ED91CEC08F0E552E550166EF6
:10054000E550156EE550146EE750136E42EBE9FF6F
:1005500043EBEAFF4206000E435A12EBEFFF1E2A5E
:100560001350141015101610B9E10CA619D06F0E07
:10057000095C06E10E501E5C13E31E280E6E10D0BF
:10058000780E095C09E0580E095C06E0620E095C11
:1005900003E0420E095C04E1020E1F6E01D01E6AE8
:1005A000100E0C1407E00D500E5C04E20F5002E137
:1005B0008DEB0EF00E501E5C03E21E500E5E01D05D
:1005C0000E6A0E501E241F24D8800D5407E20E50D0
:1005D0000D5CD8801E54D8801F54116E010E0C146F
:1005E00006E1115004E08AD866E10AD9116A205068
:1005F00007E010D920EBE6FF87D802E1E61D5BE0BB
:100600001F500BE007D9300EE66E7ED802E1E61DE2
:1006100052E0D9D802E1E61D4EE00E501F5C02E226
:100620001F500E5E300EE66E0EEBE6FFDCD843E1A7
:10063000422A000E432242EBE9FF43EBEAFFEF5070
:10064000126E125008E0E6D812EBE6FF5DD8F0E13A
:10065000E61DEEE130D052D82EE10E501E241124BA
:100660001F240A262CD01050030A1CE0010A14E0B3
:10067000030A07E0ADD8C9D80AEBEEFF0BEBEDFF9C
:1006800020D08BD8E86BE6AF02D0E769E869A0D844
:100690004ED8E8C1EEFF15D080D8E6BFE76998D8FC
:1006A00046D80FD095D8B1D80AEBEFFF0AD08BD837
:1006B00005E1E61D03E1F368F4680BD00A2A000E99
:1006C0000B22D950020F70D8CDD40AEBF3FF0BEBFD
:1006D000F4FF7CE9E5CFDAFFE7CFD9FF1200D9506C
:1006E000020F62D80800F550096E1200005E000E7D
:1006F000015A00EBE9FF01EBEAFF1200200EE66E63
:1007000011EBE6FFF3EF03F023EC0AF043E9F3CF3C
:10071000E5F1F4CFE6F10101F31C120013EBE6FF63
:1007200014EBE6FF15EBE6FF16EBE6FF12006DD8C3
:10073000E5C1EEFFE6C1EEFFE7C1EEFF1200D9CF43
:10074000E6FFDACFE6FFE1CFD9FFE2CFDAFF120012
:100750001C500D5C116E54D80F501200EECFE5F115
:10076000EECFE6F1EFCFE7F10101E86B1200EECF3B
:10077000E5F1EFCFE6F1010112000950E66EE66AFD
:100780004EEC0BF042E9F3501200E551136EE651C6
:10079000146EE751156EE85112000AEBE5F10BEB10
:1007A000E6F10101E76B1200E96E000EDA20EA6E55
:1007B000EF2AEECFF6FF000EEF22EECFF7FFEF228B
:1007C000EECFF8FF120026D809EBE6FF84EF03F026
:1007D000020E76EF03F00A0E1202F3500924D00F36
:1007E000126E6FEF03F016D80EEC00F044E900092A
:1007F000120010EBE6FFE66AE66AE66A8EEF03F0A7
:1008000011500A26000E0B221200EE50EFCFEAFF25
:10081000E96E120005EBE6FF06EBE6FF1200D8DFFB
:10082000EE501C6EED501D6E1D341200D1DFB7EF7F
:0208300003F0D3
:0E083200DACFE4FFE9CFE4FFEACFE4FFF3CF33
:10084000E4FFF4CFE4FFE65201011D2B000E1E234E
:100850001F232023F2A003D0F29081CFCCF2F2A488
:1008600015D0F294C5DA0101252B000E262327238B
:100870002823D880050E2555000E2655000E275535
:10088000000E285503E2295101E000999EAC19D0D1
:100890009E9C052B000E0623072308239EDAC3CF58
:1008A000EEFFC4CFEDFF0201C75104E0010195DA6C
:1008B000A7DA04D0010191DAEF50C96E010100837B
:1008C0008B949EA6B7D09E96C9CF46F28B848B8020
:1008D000A4AA04D07ACFCBF2DA8D0087F00E020101
:1008E0004615C86FA00EC85D13E18150C96E0F0E8A
:1008F0004615C96F01010D2B000E0E230F23102387
:100900001DC121F11EC122F11FC123F120C124F11B
:10091000D00E0201C85D11E1030E4615100DF35013
:10092000C911836E0C0E4615100DF350806E010137
:1009300000895EDAF294DAC1C9FFB00EC85D0CE13D
:100940000F0E4615CA6F8B80CBC2C9FF0101152B54
:10095000000E162317231823E00E0201C85D11E1D3
:10096000BAA206D00F0E4615100DF350CA11796EBB
:10097000DAC1C9FF01013A0EDA6F0097008938DA4F
:10098000F294800EC85D03E0900EC85D28E146AD8C
:1009900003D0010EC76F01D0C76B0F0E46150101C2
:1009A000D96F040ED95D01E1D96BD951090801E273
:1009B000D96BC2B210D0030EC2140101F06F010155
:1009C000D951040DF3507C0B0101F011C26E0101ED
:1009D0000093C28204D0C292DAC1C9FF0093C00E54
:1009E0000201C85D11E1C2B20DD0C75105E001019D
:1009F000F4D9EF50C96E03D00101EFD901DAF8D96B
:100A0000F29402D0DAC1C9FFC85109E1DAC1C9FFC5
:100A10000101256B266B276B286B010E296F100EC9
:100A20000201C85D05E1CBC2C9FF01013A0EDA6FD0
:100A3000C2A28B94E552E5CFF4FFE5CFF3FFE5CFFB
:100A4000EAFFE5CFE9FFE5CFDAFF1100D9CFE6FFF6
:100A5000E1CFD9FF86E90201CF6BD06BD16BD26BAE
:100A60000201CF51015CD0510258D1510358D251EB
:100A700004580BE30000005001E004000201CF2BFA
:100A8000000ED023D123D223EBD741E9E7CFD9FF02
:100A90001200C6D90101000E016F020E026F230E73
:100AA000036F020E046F01C1E6FF02C1E6FF38ECDE
:100AB00007F042E903C1E6FF04C1E6FF38EC07F0A6
:100AC00042E9700ED36E400E9B6E906A3F0E926E9E
:100AD000C00E896E3F0E936EF19EF296F298F292DE
:100AE000F2900F015A6B980E946E800E956E8C6882
:100AF000070E966E94869488949A928A9494928023
:100B0000928292849286928A96809682968493822A
:100B10009388949C948E959C958EF70EE66E830E2A
:100B2000E66EE30EE66EB5EC0AF043E90F01EF0E58
:100B30005D6F030E5C6FE00EC16E9D8C9F8CE66A4C
:100B4000E66A040EE66E56EC0AF043E93A0EC96E08
:100B5000330EE66EE66A2C0EE66EB1EC09F043E960
:100B60007C6A330E7B6E970EE66E04EC0BF041E967
:100B7000E66A7D0EE66E1FEC0BF042E99E969D86BE
:100B8000D08E55D9F28EC69CC69E42E9E7CFD9FFDA
:100B9000120046D90101256B266B276B286B296B48
:100BA000008977DF010EE66EF40EE66E010EE66E4A
:100BB000E66AE66A4BDF45E9E60EE66E110EE66E82
:100BC000000EE66E87EC0AF043E9BE0EE66E110EEB
:100BD000E66E000EE66E87EC0AF043E93F0E8C6E7F
:100BE000C00E896E8B808B80C650800B03E1C6508F
:100BF000400B41E0C69CC69E090EE96E010EEA6EEE
:100C0000EE500101055D096FEE5006590A6FEE5076
:100C100007590B6FEE5008590C6F110EE96E010E5B
:100C2000EA6EEE500D5D116FEE500E59126FEE50E0
:100C30000F59136FEE501059146F36C1E6FF37C1CC
:100C4000E6FF38C1E6FF39C1E6FF2EC1E6FF2FC13E
:100C5000E6FF30C1E6FF31C1E6FF9B0EE66E110EE6
:100C6000E66E000EE66ED7D8EAEC09F04DE9D3D86F
:100C7000E1EC0AF042E9A650020B03E1A650040B96
:100C800019E0A6A402D08B7001D08B90A698A688FC
:100C9000190EE96E010EEA6EEE500101155D196F35
:100CA000EE5016591A6FEE5017591B6FEE50185927
:100CB0001C6FBDD8F29E05C12AF106C12BF107C1F8
:100CC0002CF108C12DF109C12EF10AC12FF10BC180
:100CD00030F10CC131F10DC132F10EC133F10FC150
:100CE00034F110C135F111C136F112C137F113C120
:100CF00038F114C139F115C13AF116C13BF117C1F0
:100D00003CF118C13DF119C13EF11AC13FF11BC1BF
:100D100040F11CC141F11DC142F11EC143F11FC18F
:100D200044F120C145F121C146F122C147F123C15F
:100D300048F124C149F125C14AF126C14BF127C12F
:100D40004CF128C14DF129C14EF1F28E010100A9EB
:100D500003D0010EE66E01D0E66AC00EE66E270EE5
:100D6000E66E090EE66EE66A71DE45E94AC1E6FF07
:100D70004BC1E6FF4CC1E6FF4DC1E6FF3AC1E6FFBD
:100D80003BC1E6FF3CC1E6FF3DC1E6FF32C1E6FFE5
:100D900033C1E6FF34C1E6FF35C1E6FF2AC1E6FFF5
:100DA0002BC1E6FF2CC1E6FF2DC1E6FF42C1E6FFE5
:100DB00043C1E6FF44C1E6FF45C1E6FF660EE66EAD
:100DC000110EE66E000EE66E26D8EAEC09F059E93F
:100DD00022D8E1EC0AF042E907D7D951E96EEA6A74
:100DE000D890E936EA36570EE926010EEA221200BB
:100DF0000201CD6B7D0ECE6FD76ECDC2D6FF120035
:100E0000EECFF0F1EFCFF1F10101F1C1F0F1F16BB3
:100E1000F0C1C9FF1200470EE66E020EE66E120028
:100E2000D9CFE6FFE1CFD9FF81E941E812007A503E
:0C0E3000016E7A50016E7A50016E1200C3
:040E3C00B1D841E800
:100E40000128036E0050035C01E3036A035042E98A
:100E5000E7CFD9FF1200A4D841E8015002E1000415
:100E600001D00104036E035042E9E7CFD9FF12001D
:100E700097D8230EE66EE66AE66A00EBE6FF01EB22
:100E8000E6FF64EC09F045E997D08AD885D8EF50A1
:100E900002E0000E01D0010E8FD082D87DD894D808
:100EA00002E7E73402D0E750E55D02E2000E01D030
:100EB000010E82D075D842E86FD8EFCFE5F101017D
:100EC000E76EE51902E7E53502D0E551E75C17E288
:100ED00098D88ED868D8EFCFE7F1E86BE7BFE8691C
:100EE0007AD8EF50036E046A200EE66E5CD87AD88A
:100EF0005AD8E552E750EF6E4FD8EF0602D0036A9A
:100F0000046A03EBF3FF04EBF4FF43E9E7CFD9FFF7
:100F100012007CD885E94BD8220E6FD855D802E74D
:100F2000E73402D0E750E55D1CE241D861D83FD8F4
:100F3000200E63D8EFCFE7F1E86BE7BFE8694BD845
:100F400000EBEFFF200EE66E32D857D84BD82FD8E3
:100F5000200E53D8E552E750EF6E29D8220E4DD817
:100F6000EF2A2AD053D884E956D8220E29D8200E49
:100F700027D8210E42D8EF6A00500DE0200EE66E11
:100F8000E66AE66A48D834D8E9CFE6FFEACFE6FF5A
:100F900064EC09F045E910D034D8220EFDEF07F0DB
:100FA00035D883E912002DD8210EFDEF07F002EBB2
:100FB000E9FF03EBEAFF120041E9E7CFD9FF120096
:100FC0001CD8EF6A0BEF08F0EFCFE5F1200E01011E
:100FD000E76EE5191200E551E725E96EE651E821D3
:100FE000EA6E1200EFCFE6FF29DF42E9E66E12005B
:100FF000E9CFE5F1EACFE6F11200E926000EEA2298
:10100000120000EBE9FF01EBEAFF1200D9CFE6FF87
:10101000E1CFD9FF120001EBE9FF02EBEAFF12007A
:1010200045E8D9CFE6FFDACFE6FFE1CFD9FFE2CF3F
:10103000DAFF8FE90C6A1200F3DF0C8003D0F0DFD7
:1010400001D00C820B6A0A6A096A086A200EE76EF0
:10105000D8900436053606360736083609360A367D
:101060000B360050085C0150095802500A580350D2
:101070000B5809E30050085E0150095A02500A5A01
:1010800003500B5A042AE72EE4D70CB212000CB01E
:101090000AD088EB00F089EB01F08AEB02F08BEBD1
:1010A00003F00CA008D084EB00F085EB01F086EB98
:1010B00002F087EB03F0E552E5CFDAFFE7CFD9FF87
:1010C00049E9120044E8D9CFE6FFDACFE6FFE1CFE5
:1010D000D9FFE2CFDAFF8EE980EB08F081EB09F06F
:1010E00082EB0AF083EB0BF004500802F350006E21
:1010F000F450016E04500902F3500126000EF42052
:10110000026E04500A02F3500226000EF420036E11
:1011100004500B02F350032605500802F350012639
:10112000F4500222000E032205500902F350022659
:10113000F450032205500A02F35003260650080219
:10114000F3500226F450032206500902F3500326FE
:1011500007500802F3500326E552E5CFDAFFE7CF48
:06116000D9FF48E9000C74
:0A1166000D0A2020636F756E7420DF
:10117000256C752C2061646320256C752C206461BE
:10118000746120256C752C206368617220256C7554
:101190002C20636F6D6D20256C75000D0A20206575
:1011A00072726F7220636F756E743A20616463208F
:1011B000256C752C20706F727420256C75002023AF
:1011C000232323201B5B376D2053504920536C6130
:1011D000766520526561647921201B5B306D202388
:1011E0002323230D0A000D0D0D0D0D0D0A202323C1
:1011F0002323201B5B376D2053504920536C6176AD
:101200006520526561647921201B5B306D202323AA
:1012100023230D0A0032313A33313A30350041751B
:0A12200067203135203230313500EF
:06122A000E0EF66E000E30
:10123000F76E000EF86E01010900F550E06F09002D
:10124000F550E16F03E1E06701D03DD00900F550B2
:10125000DB6F0900F550DC6F0900F550DD6F090008
:101260000900F550E96E0900F550EA6E0900090021
:101270000900F550DE6F0900F550DF6F0900090025
:10128000F6CFE2F1F7CFE3F1F8CFE4F1DBC1F6FFFF
:10129000DCC1F7FFDDC1F8FF0101DE5302E1DF53DE
:1012A00007E00900F550EE6EDE07F8E2DF07F9D738
:1012B000E2C1F6FFE3C1F7FFE4C1F8FF0101E00777
:0812C000000EE15BBFD7120034
:0812C800FE0EE3CFE9FFFF0E6B
:1012D000E3CFEAFFE9CFF3FFEACFF4FFFB0EE350E1
:1012E00003E1FC0EE35009E0FB0EE30602E2FC0E14
:1012F000E306FD0EE350EE6EF1D71200FE0EE3CFD3
:10130000E9FFFF0EE3CFEAFFF36AF46AEE5203E06F
:10131000F34AF42AFBD71200FF0EE3CFF8FFE552A1
:10132000FF0EE3CFF7FFE552FF0EE3CFF6FFE552E6
:10133000E66AE66AE66A0900F55209E0FD0EE32A6C
:1013400005E1FE0EE32A02E1FF0EE32AF4D7FD0ECB
:10135000E3CFECF1FE0EE3CFEDF1FF0EE3CFEEF1C4
:02136000120079
:0E136200D9CFE6FFDACFE6FFE1CFD9FFE2CF29
:10137000DAFF85E9BA6AA66A02B0BA8802A202D088
:10138000BA8CA68C02B4BA8E02A602D0A68801D06E
:10139000A68A02A802D0BA8401D0BA9402BAA6865C
:1013A00002AC02D0A38A01D0A39A02AE02D0A388D5
:1013B00001D0A39800EB7BFF010101EBE5F1E66BA7
:1013C000E5C17CFFBA8AA68E41E9E5CFDAFFE7CF17
:0413D000D9FF12002F
:0C13D400D9CFE6FFDACFE6FFE1CFD9FF6A
:1013E000E2CFDAFF87E944E8D9CFE6FFDACFE6FFBC
:1013F000E552E5500A6EE750096E09EBE6FF0AEB8D
:10140000E6FF00EBE6FF01EBE6FF02EBE6FFD9505B
:10141000030FE66E000EDA20E66E27EC00F047E9D7
:10142000F350076EF450086E03EBE9FF04EBEAFF9C
:10143000EF6A07EBF3FF08EBF4FF45E9E5CFDAFFCE
:06144000E7CFD9FF120006
:0A144600D9CFE6FFDACFE6FFE1CFD1
:10145000D9FFE2CFDAFF85E9013415E200EBE9FFBD
:1014600001EBEAFFEECFF3FFEDCFF4FFEE2A000E23
:10147000EF22F3CFE9FFF4CFEAFF02EBEFFFEF50EB
:10148000F36EF46A0DD0FE0E005C05E102EBE6FFA0
:101490007FEC0BF004D002EBE6FF03EC00F041E937
:0C14A00041E9E5CFDAFFE7CFD9FF1200E9
:0414AC00D9CFE6FFAF
:1014B000DACFE6FFE1CFD9FFE2CFDAFF85E93F0ED1
:1014C000C716C66A0250C6120050C7120150030A5E
:1014D00009E0010A04E0020A06E1C78C04D0C78CC7
:1014E000C68801D0C6880250050A05E0010A05E158
:1014F0009486928A03D0948601D094969488949A84
:0E150000C68A41E9E5CFDAFFE7CFD9FF120036
:02150E00D9CF33
:10151000E6FFDACFE6FFE1CFD9FFE2CFDAFF85E9D8
:10152000BAA2FED700EBF6FF01EBF7FF02EBF8FFE4
:101530000800F5CFE6FF37EC0BF041E9D9CFE9FF22
:10154000DACFEAFFEFCFF6FFEE2AEFCFF7FF000E7C
:10155000EE22EFCFF8FFEE220800F550E1E141E97D
:0A156000E5CFDAFFE7CFD9FF120054
:06156A00D9CFE6FFDACF45
:10157000E6FFE1CFD9FFE2CFDAFF85E9C26AC16AAF
:10158000C06A7C0E0114C26E00EBC1FF0250040D54
:10159000F350380B0101E66F02380F0B070BE56FB4
:1015A000800E0214E511E611C06E01AE03D09E9CC0
:1015B0009D8CF28CC28041E9E5CFDAFFE7CFD9FFFD
:0215C000120017
:0E15C200D9CFE6FFDACFE6FFE1CFD9FFE2CFC7
:1015D000DAFF84E9BAA2FED700EBE9FF01EBEAFFEC
:1015E000EFCFE6FF37EC0BF041E900EBE9FF01EB51
:1015F000EAFF002A000E0122EF50ECE141E9E5CFBD
:08160000DAFFE7CFD9FF120069
:08160800D9CFE6FFDACFE6FFBF
:10161000E1CFD9FFE2CFDAFF83E97F0E0014D56E68
:10162000D76AD66AF29400AE02D0F28A01D0F29A5A
:0E163000D58E41E9E5CFDAFFE7CFD9FF1200F2
:02163E00D9CF02
:10164000E6FFDACFE6FFE1CFD9FFE2CFDAFF84E9A8
:1016500042E880EB04F081EB05F005EBD7FF04EBEB
:0E166000D6FF43E9E5CFDAFFE7CFD9FF12004E
:02166E00D9CFD2
:10167000E6FFDACFE6FFE1CFD9FFE2CFDAFF83E979
:10168000BAAC04D0BA900101F2B3BA8000EB79FF92
:0C16900041E9E5CFDAFFE7CFD9FF1200F7
:04169C00F36AF46A8F
:1016A000FF0EE124E96EFF0EE220EA6EED6607D040
:1016B0002F0EEF6404D03A0EEF6001D0F32A12002F
:1016C000410EF36E00EE00F00E0E01D81200EA603B
:1016D00002D0EE6AFCD7F350E9601200EE6AFCD744
:1016E0001DEE00F02DEE00F0F86A60EC0BF015EC4A
:0E16F00009F096EC0BF0C9EC05F0FBD71200E8
:0216FE00FF0EDD
:10170000E350ACBA04D0AF6AAB8EAC8A949CACA266
:0A171000FED7AD6EF36EF46A12000E
:06171A003031323334359A
:0B17200036373839616263646566008B
:02172C001200A9
:02172E000000B9
:1017300000000000000000000000000000000000A9
:101740000000000000000000000000000000000099
:101750000000000000000000000000000000000089
:101760000000000000000000000000000000000079
:10177000000000000000000000000000001E120039
:101780001512000000000000000000000000000032
:101790000000000000000000000000000000000049
:1017A0000000000000000000000000000000000039
:1017B0000000000000000000000000000000000029
:1017C0000000000000000000000000000000000019
:1017D0000000000000000000000000000000000009
:1017E00000000000000000000000000000000000F9
:1017F00000000000000000000000000000000000E9
:0918000000000000000000003AA5
:020000040030CA
:010000005DA2
:0100010018E6
:010002007F7E
:010003002BD1
:010005008872
:010006009168
:010008000FE8
:01000900C036
:01000A000FE6
:01000B00E014
:01000C000FE4
:01000D0040B2
:00000001FF
